{
  "contractName": "PictureContract",
  "abi": [
    {
      "constant": true,
      "inputs": [
        {
          "name": "",
          "type": "uint256"
        }
      ],
      "name": "pictureItems",
      "outputs": [
        {
          "name": "owner",
          "type": "address"
        },
        {
          "name": "forSale",
          "type": "bool"
        },
        {
          "name": "price",
          "type": "uint256"
        }
      ],
      "payable": false,
      "stateMutability": "view",
      "type": "function"
    },
    {
      "constant": true,
      "inputs": [
        {
          "name": "",
          "type": "address"
        }
      ],
      "name": "balances",
      "outputs": [
        {
          "name": "",
          "type": "uint256"
        }
      ],
      "payable": false,
      "stateMutability": "view",
      "type": "function"
    },
    {
      "inputs": [],
      "payable": false,
      "stateMutability": "nonpayable",
      "type": "constructor"
    },
    {
      "anonymous": false,
      "inputs": [
        {
          "indexed": false,
          "name": "index",
          "type": "uint256"
        }
      ],
      "name": "PictureItemOwnerChanged",
      "type": "event"
    },
    {
      "anonymous": false,
      "inputs": [
        {
          "indexed": false,
          "name": "index",
          "type": "uint256"
        },
        {
          "indexed": false,
          "name": "price",
          "type": "uint256"
        }
      ],
      "name": "PictureItemPriceChanged",
      "type": "event"
    },
    {
      "anonymous": false,
      "inputs": [
        {
          "indexed": false,
          "name": "index",
          "type": "uint256"
        },
        {
          "indexed": false,
          "name": "price",
          "type": "uint256"
        },
        {
          "indexed": false,
          "name": "forSale",
          "type": "bool"
        }
      ],
      "name": "PictureItemAvailabilityChanged",
      "type": "event"
    },
    {
      "constant": false,
      "inputs": [
        {
          "name": "index",
          "type": "uint256"
        },
        {
          "name": "price",
          "type": "uint256"
        }
      ],
      "name": "putPictureItemUpForSale",
      "outputs": [],
      "payable": false,
      "stateMutability": "nonpayable",
      "type": "function"
    },
    {
      "constant": false,
      "inputs": [
        {
          "name": "index",
          "type": "uint256"
        }
      ],
      "name": "removeFromMarket",
      "outputs": [],
      "payable": false,
      "stateMutability": "nonpayable",
      "type": "function"
    },
    {
      "constant": true,
      "inputs": [],
      "name": "getPictureItems",
      "outputs": [
        {
          "name": "",
          "type": "address[]"
        },
        {
          "name": "",
          "type": "bool[]"
        },
        {
          "name": "",
          "type": "uint256[]"
        }
      ],
      "payable": false,
      "stateMutability": "view",
      "type": "function"
    },
    {
      "constant": false,
      "inputs": [
        {
          "name": "index",
          "type": "uint256"
        }
      ],
      "name": "buyPictureItem",
      "outputs": [],
      "payable": true,
      "stateMutability": "payable",
      "type": "function"
    },
    {
      "constant": false,
      "inputs": [],
      "name": "withdrawFunds",
      "outputs": [],
      "payable": false,
      "stateMutability": "nonpayable",
      "type": "function"
    },
    {
      "constant": false,
      "inputs": [],
      "name": "destroy",
      "outputs": [],
      "payable": true,
      "stateMutability": "payable",
      "type": "function"
    }
  ],
  "bytecode": "0x608060405234801561001057600080fd5b50336000806101000a81548173ffffffffffffffffffffffffffffffffffffffff021916908373ffffffffffffffffffffffffffffffffffffffff160217905550600a60026000600a8110151561006357fe5b6002020160010181905550600160026000600a8110151561008057fe5b6002020160000160146101000a81548160ff021916908315150217905550600a60026001600a811015156100b057fe5b6002020160010181905550600160026001600a811015156100cd57fe5b6002020160000160146101000a81548160ff021916908315150217905550600a600280600a811015156100fc57fe5b60020201600101819055506001600280600a8110151561011857fe5b6002020160000160146101000a81548160ff021916908315150217905550601460026003600a8110151561014857fe5b6002020160010181905550600160026003600a8110151561016557fe5b6002020160000160146101000a81548160ff021916908315150217905550601460026004600a8110151561019557fe5b6002020160010181905550600160026004600a811015156101b257fe5b6002020160000160146101000a81548160ff021916908315150217905550601460026005600a811015156101e257fe5b6002020160010181905550600160026005600a811015156101ff57fe5b6002020160000160146101000a81548160ff021916908315150217905550601e60026006600a8110151561022f57fe5b6002020160010181905550600160026006600a8110151561024c57fe5b6002020160000160146101000a81548160ff021916908315150217905550601e60026007600a8110151561027c57fe5b6002020160010181905550600160026007600a8110151561029957fe5b6002020160000160146101000a81548160ff021916908315150217905550602860026008600a811015156102c957fe5b6002020160010181905550600160026008600a811015156102e657fe5b6002020160000160146101000a81548160ff021916908315150217905550602860026009600a8110151561031657fe5b6002020160010181905550600160026009600a8110151561033357fe5b6002020160000160146101000a81548160ff021916908315150217905550610b0c806103606000396000f30060806040526004361061008e576000357c0100000000000000000000000000000000000000000000000000000000900463ffffffff1680630b194cc71461009357806324600fc31461011257806327e235e3146101295780634806994c146101805780634f0bf354146101b757806353f0d281146101d75780636457bd04146102d357806383197ef014610300575b600080fd5b34801561009f57600080fd5b506100be6004803603810190808035906020019092919050505061030a565b604051808473ffffffffffffffffffffffffffffffffffffffff1673ffffffffffffffffffffffffffffffffffffffff16815260200183151515158152602001828152602001935050505060405180910390f35b34801561011e57600080fd5b50610127610366565b005b34801561013557600080fd5b5061016a600480360381019080803573ffffffffffffffffffffffffffffffffffffffff169060200190929190505050610446565b6040518082815260200191505060405180910390f35b34801561018c57600080fd5b506101b5600480360381019080803590602001909291908035906020019092919050505061045e565b005b6101d560048036038101908080359060200190929190505050610556565b005b3480156101e357600080fd5b506101ec6107b9565b60405180806020018060200180602001848103845287818151815260200191508051906020019060200280838360005b8381101561023757808201518184015260208101905061021c565b50505050905001848103835286818151815260200191508051906020019060200280838360005b8381101561027957808201518184015260208101905061025e565b50505050905001848103825285818151815260200191508051906020019060200280838360005b838110156102bb5780820151818401526020810190506102a0565b50505050905001965050505050505060405180910390f35b3480156102df57600080fd5b506102fe60048036038101908080359060200190929190505050610965565b005b610308610a4b565b005b600281600a8110151561031957fe5b600202016000915090508060000160009054906101000a900473ffffffffffffffffffffffffffffffffffffffff16908060000160149054906101000a900460ff16908060010154905083565b600080339150600160008373ffffffffffffffffffffffffffffffffffffffff1673ffffffffffffffffffffffffffffffffffffffff1681526020019081526020016000205490506000811115156103bd57600080fd5b6000600160008473ffffffffffffffffffffffffffffffffffffffff1673ffffffffffffffffffffffffffffffffffffffff168152602001908152602001600020819055508173ffffffffffffffffffffffffffffffffffffffff166108fc829081150290604051600060405180830381858888f19350505050151561044257600080fd5b5050565b60016020528060005260406000206000915090505481565b6000600283600a8110151561046f57fe5b6002020190508060000160009054906101000a900473ffffffffffffffffffffffffffffffffffffffff1673ffffffffffffffffffffffffffffffffffffffff163373ffffffffffffffffffffffffffffffffffffffff161480156104d45750600082115b15156104df57600080fd5b60018160000160146101000a81548160ff0219169083151502179055508181600101819055507f7ba19894f434518867538d1e04425aa5fca7226bac4fcd5264397ed70a0712e7838360016040518084815260200183815260200182151515158152602001935050505060405180910390a1505050565b6000600282600a8110151561056757fe5b6002020190508060000160009054906101000a900473ffffffffffffffffffffffffffffffffffffffff1673ffffffffffffffffffffffffffffffffffffffff163373ffffffffffffffffffffffffffffffffffffffff16141580156105db57508060000160149054906101000a900460ff165b80156105eb575080600101543410155b15156105f657600080fd5b60008160000160009054906101000a900473ffffffffffffffffffffffffffffffffffffffff1673ffffffffffffffffffffffffffffffffffffffff1614156106ac5734600160008060009054906101000a900473ffffffffffffffffffffffffffffffffffffffff1673ffffffffffffffffffffffffffffffffffffffff1673ffffffffffffffffffffffffffffffffffffffff1681526020019081526020016000206000828254019250508190555061071e565b34600160008360000160009054906101000a900473ffffffffffffffffffffffffffffffffffffffff1673ffffffffffffffffffffffffffffffffffffffff1673ffffffffffffffffffffffffffffffffffffffff168152602001908152602001600020600082825401925050819055505b338160000160006101000a81548173ffffffffffffffffffffffffffffffffffffffff021916908373ffffffffffffffffffffffffffffffffffffffff16021790555060008160000160146101000a81548160ff0219169083151502179055507fcfa8efa53a564617bdab97efa3a2879ad6bd0411bf69f547a63e7ce747283ce5826040518082815260200191505060405180910390a15050565b606080606080606080600080600c6040519080825280602002602001820160405280156107f55781602001602082028038833980820191505090505b509450600c6040519080825280602002602001820160405280156108285781602001602082028038833980820191505090505b509350600c60405190808252806020026020018201604052801561085b5781602001602082028038833980820191505090505b509250600091505b600c82101561095257600282600a8110151561087b57fe5b6002020190508060000160009054906101000a900473ffffffffffffffffffffffffffffffffffffffff1685838151811015156108b457fe5b9060200190602002019073ffffffffffffffffffffffffffffffffffffffff16908173ffffffffffffffffffffffffffffffffffffffff16815250508060010154838381518110151561090357fe5b90602001906020020181815250508060000160149054906101000a900460ff16848381518110151561093157fe5b90602001906020020190151590811515815250508180600101925050610863565b8484849750975097505050505050909192565b6000600282600a8110151561097657fe5b6002020190508060000160009054906101000a900473ffffffffffffffffffffffffffffffffffffffff1673ffffffffffffffffffffffffffffffffffffffff163373ffffffffffffffffffffffffffffffffffffffff161415156109da57600080fd5b60008160000160146101000a81548160ff0219169083151502179055507f7ba19894f434518867538d1e04425aa5fca7226bac4fcd5264397ed70a0712e782826001015460006040518084815260200183815260200182151515158152602001935050505060405180910390a15050565b6000809054906101000a900473ffffffffffffffffffffffffffffffffffffffff1673ffffffffffffffffffffffffffffffffffffffff163373ffffffffffffffffffffffffffffffffffffffff16141515610aa657600080fd5b6000809054906101000a900473ffffffffffffffffffffffffffffffffffffffff1673ffffffffffffffffffffffffffffffffffffffff16ff00a165627a7a72305820a2c9d540cf88df86c5bfe1cab113bc757410ff9041acd948ad85d39575143b6e0029",
  "source": "pragma solidity ^0.4.11;\n\ncontract PictureContract {\n    address owner;\n    mapping (address => uint) public balances;\n\n    struct PictureItem {\n        address owner;\n        bool forSale;\n        uint price;\n    }\n\n    PictureItem[10] public pictureItems;\n\n    event PictureItemOwnerChanged(\n        uint index\n    );\n\n    event PictureItemPriceChanged(\n        uint index,\n        uint price\n    );\n\n    event PictureItemAvailabilityChanged(\n        uint index,\n        uint price,\n        bool forSale\n    );\n\n    constructor() public {\n        owner = msg.sender;\n        pictureItems[0].price = 10;\n        pictureItems[0].forSale = true;\n\n        pictureItems[1].price = 10;\n        pictureItems[1].forSale = true;\n\n        pictureItems[2].price = 10;\n        pictureItems[2].forSale = true;\n\n        pictureItems[3].price = 20;\n        pictureItems[3].forSale = true;\n\n        pictureItems[4].price = 20;\n        pictureItems[4].forSale = true;\n\n        pictureItems[5].price = 20;\n        pictureItems[5].forSale = true;\n\n        pictureItems[6].price = 30;\n        pictureItems[6].forSale = true;\n\n        pictureItems[7].price = 30;\n        pictureItems[7].forSale = true;\n\n        pictureItems[8].price = 40;\n        pictureItems[8].forSale = true;\n\n        pictureItems[9].price = 40;\n        pictureItems[9].forSale = true;\n\n    }\n\n    function putPictureItemUpForSale(uint index, uint price) public {\n        PictureItem storage pictureItem = pictureItems[index];\n\n        require(msg.sender == pictureItem.owner && price > 0);\n\n        pictureItem.forSale = true;\n        pictureItem.price = price;\n        emit PictureItemAvailabilityChanged(index, price, true);\n    }\n\n    function removeFromMarket(uint index) public {\n        PictureItem storage pictureItem = pictureItems[index];\n\n        require(msg.sender == pictureItem.owner);\n\n        pictureItem.forSale = false;\n        emit PictureItemAvailabilityChanged(index, pictureItem.price, false);\n    }\n\n    function getPictureItems() public view returns(address[], bool[], uint[]) {\n        address[] memory addrs = new address[](12);\n        bool[] memory available = new bool[](12);\n        uint[] memory price = new uint[](12);\n\n        for (uint i = 0; i < 12; i++) {\n            PictureItem storage pictureItem = pictureItems[i];\n            addrs[i] = pictureItem.owner;\n            price[i] = pictureItem.price;\n            available[i] = pictureItem.forSale;\n        }\n\n        return (addrs, available, price);\n    }\n\n    function buyPictureItem(uint index) public payable {\n        PictureItem storage pictureItem = pictureItems[index];\n\n        require(msg.sender != pictureItem.owner && pictureItem.forSale && msg.value >= pictureItem.price);\n\n        if(pictureItem.owner == 0x0) {\n            balances[owner] += msg.value;\n        }else {\n            balances[pictureItem.owner] += msg.value;\n        }\n\n        pictureItem.owner = msg.sender;\n        pictureItem.forSale = false;\n\n        emit PictureItemOwnerChanged(index);\n    }\n\n    function withdrawFunds() public {\n        address payee = msg.sender;\n        uint payment = balances[payee];\n        require(payment > 0);\n        balances[payee] = 0;\n        require(payee.send(payment));\n    }\n\n    function destroy() payable public {\n        require(msg.sender == owner);\n        selfdestruct(owner);\n    }\n}\n",
  "sourcePath": "/Users/clementbalestrat/Workspace/EthereumMarketplace/smartContracts/contracts/PictureContract.sol",
  "compiler": {
    "name": "solc",
    "version": "0.4.24+commit.e67f0147.Emscripten.clang"
  },
  "schemaVersion": "2.0.1",
  "updatedAt": "2018-10-06T07:20:47.137Z"
}